:100000000C942A000C9447000C9447000C94470071
:100010000C9447000C9447000C9447000C94470044
:100020000C9447000C9447000C9447000C94F10585
:100030000C9447000C9447000C9447000C94470024
:100040000C9447000C9447000C9447000C947C01DE
:100050000C94470011241FBECFE5D4E0DEBFCDBF16
:1000600010E0A0E6B0E0E8EBFCE002C005900D92E5
:10007000A436B107D9F710E0A4E6B0E001C01D92A4
:10008000A63BB107E1F70E944D010C945A060C946F
:100090000000DF93CF930F92CDB7DEB719820E9495
:1000A000B700198211C08981882F90E08A559F4F2F
:1000B000FC0110828981882F90E08A569F4FFC01B5
:1000C000108289818F5F89838981803160F30E94EA
:1000D00070000E94920078940F90CF91DF91089564
:1000E000DF93CF93CDB7DEB783E590E023E530E033
:1000F000F90120812B60FC01208389E590E029E54E
:1001000030E0F90120812260FC01208382E590E04B
:10011000FC0110828CE590E02CE0FC012083CF9163
:10012000DF910895DF93CF9300D0CDB7DEB783E39F
:1001300090E09A83898380E490E029813A81232F9B
:100140003327FC01208389E290E02981FC01208390
:100150008AE290E028E9FC01208380E490E026E830
:10016000FC0120830F900F90CF91DF910895DF93D2
:10017000CF93CDB7DEB780E590E020E530E0F90120
:1001800020812B7FFC01208381E390E02FEFFC0195
:10019000208384E390E02FEFFC0120838AE390E04A
:1001A000FC01108285E390E0FC01108282E390E084
:1001B000FC01108282E390E022E330E0F90120812B
:1001C0002062FC01208382E390E022E330E0F90129
:1001D00020812064FC01208382E390E022E330E070
:1001E000F90120812068FC012083CF91DF910895DF
:1001F000DF93CF930F92CDB7DEB7198287E290E0FD
:1002000020E4FC01208387E290E027E230E0F9015E
:1002100020812160FC01208387E290E027E230E02A
:10022000F90120812062FC01208386E290E026E231
:1002300030E0F90120812062FC01208380E590E01C
:1002400020E530E0F90120812066FC01208386E270
:1002500090E026E230E0F90120812068FC01208353
:1002600086E290E026E230E0F90120812064FC0182
:100270002083000086E290E0FC018081882F90E0DE
:10028000807190700097B1F385E290E0FC0180816D
:1002900089830F90CF91DF910895DF93CF93CDB7EE
:1002A000DEB70E94490085E390E025E330E0F901E4
:1002B00020812460FC01208385E390E025E330E089
:1002C000F90120812260FC01208385E390E025E391
:1002D00030E0F90120812064FC01208385E390E077
:1002E00025E330E0F90120812062FC0120830E9497
:1002F00010030E949504FBCF1F920F920FB60F922E
:1003000011242F933F934F935F936F937F938F931A
:100310009F93AF93BF93EF93FF93DF93CF93CDB7AB
:10032000DEB7809168008130B9F580916900882F2F
:1003300090E0880F991F9C01220F331F220F331F5B
:10034000820F931F9C01809180009091810028175B
:10035000390710F582E390E022E330E0F9013081C3
:1003600020E82327FC01208385E390E025E330E0AB
:10037000F901308121E02327FC01208385E390E00F
:1003800025E330E0F901308120E12327FC012083BF
:1003900010928100109280000E942A0680918000B5
:1003A00090918100019690938100809380008091CC
:1003B000640090916500A0916600B091670001967D
:1003C000A11DB11D8093640090936500A093660009
:1003D000B0936700CF91DF91FF91EF91BF91AF9103
:1003E0009F918F917F916F915F914F913F912F914D
:1003F0000F900FBE0F901F901895DF93CF93CDB73E
:10040000DEB780917E0090917F00009709F43FC095
:1004100080917E0090917F002EE481329207B8F5A2
:1004200085E390E025E330E0F90120812460FC01C0
:10043000208385E390E025E330E0F90120812D7FE2
:10044000FC01208385E390E025E330E0F901208181
:100450002064FC01208385E390E025E330E0F9018E
:1004600020812062FC01208382E390E022E330E0DF
:10047000F90120812F7DFC01208382E390E022E3BB
:1004800030E0F90120812064FC01208334C0809198
:100490007E0090917F00FEE481329F0760F18091A1
:1004A0007E0090917F0021E6893A920720F585E34E
:1004B00090E025E330E0F90120812B7FFC012083CF
:1004C00085E390E025E330E0F90120812F7BFC01FA
:1004D000208382E390E022E330E0F9012081206272
:1004E000FC01208382E390E022E330E0F9012081E7
:1004F0002064FC01208380917E0090917F00F1E6D2
:10050000893A9F0708F43FC080917E0090917F0058
:100510002FEA893C9207B8F585E390E025E330E0C7
:10052000F90120812460FC01208385E390E025E32C
:1005300030E0F90120812260FC01208385E390E016
:1005400025E330E0F90120812064FC01208385E36C
:1005500090E025E330E0F90120812F7DFC0120832C
:1005600082E390E022E330E0F90120812062FC0187
:10057000208382E390E022E330E0F90120812F7BA9
:10058000FC01208341C080917E0090917F00FFEAB2
:10059000893C9F0768F180917E0090917F0023EC59
:1005A0008135920728F585E390E025E330E0F901F5
:1005B00020812B7FFC01208385E390E025E330E060
:1005C000F90120812F7BFC01208382E390E022E36C
:1005D00030E0F90120812062FC01208382E390E079
:1005E00022E330E0F90120812064FC0120830CC06B
:1005F00080917E0090917F00F3EC81359F0720F081
:1006000010927F0010927E0080917E0090917F007A
:10061000019690937F0080937E00CF91DF910895A3
:10062000DF93CF9300D00F92CDB7DEB719821A8235
:100630001B829091830080918200891780F48091C1
:100640008200882F90E08A559F4FFC0180818A8329
:10065000809182008F5F8093820081E0898389810D
:10066000813009F085C080918E00882351F48A8101
:10067000853539F481E080938E008A8180938D00E6
:1006800077C080918E008130B9F48A818131A0F0E9
:100690008A81893188F480918700882369F48A816E
:1006A0008093870090918D008A81890F80938D00BF
:1006B00082E080938E005CC080918E00823099F43D
:1006C0008A81882381F08A81853068F48A818093C9
:1006D000880090918D008A81890F80938D0083E03E
:1006E00080938E0045C080918E00833009F5809103
:1006F00088008823E9F180918800882F90E0019795
:1007000087579F4F2A81FC01208390918D008A8119
:10071000890F80938D00809188008150809388009C
:1007200080918800882321F584E080938E0020C08A
:1007300080918E00843059F48A818B8390918D0052
:100740008B819817A9F485E080938E0011C0809169
:100750008E00853059F48A818A3A41F410928200E1
:100760001092830086E080938E0002C00E94820473
:1007700080918E00863021F40E94C6030E9482047C
:100780000F900F900F90CF91DF910895DF93CF934B
:10079000CDB7DEB780918700882F90E08431910536
:1007A00009F452C0853191055CF48231910581F1E3
:1007B000833191050CF043C08131910591F09FC0C8
:1007C0008631910509F46DC0863191050CF448C05D
:1007D0008731910509F46AC08831910509F46EC02A
:1007E0008EC0809189008093680082E390E022E3CC
:1007F00030E0F90120812F7DFC01208382E390E02D
:1008000022E330E0F90120812064FC01208377C0DD
:10081000809189008093690082E390E022E330E0D8
:10082000F90120812062FC01208382E390E022E331
:1008300030E0F90120812F7BFC01208360C0809192
:10084000890080936A005BC0809189008F708093DB
:100850006B008091890082958F7080936C004FC0EF
:1008600080918900282F30E080918A00882F90E0C5
:10087000982F8827822B932B90936E0080936D0086
:1008800080918B00282F30E080918C00882F90E0A1
:10089000982F8827822B932B9093700080936F0062
:1008A0002EC0809189008093710029C080918900B9
:1008B0008093600081E08093860021C08091890050
:1008C000282F30E080918A00882F90E0982F882789
:1008D000822B932B909373008093720080918B00F6
:1008E000282F30E080918C00882F90E0982F882767
:1008F000822B932B90937500809374000000CF910E
:10090000DF910895DF93CF93CDB7DEB710928200C9
:100910001092830010928E0010928D001092880029
:1009200010928700CF91DF910895EF92FF920F937D
:100930001F93DF93CF93CDB7DEB720916400309142
:1009400065004091660050916700809192009091FF
:100950009300A0919400B091950079018A01E81A62
:10096000F90A0A0B1B0BD801C701803D07E090076D
:1009700000E0A00700E0B00708F44FC080916400D9
:1009800090916500A0916600B091670080939200FD
:1009900090939300A0939400B0939500809162008F
:1009A0008130D9F580918600813031F41092860033
:1009B00087E28093630027C080916300813281F4D5
:1009C00080916A00882321F485E2809363001BC034
:1009D00080916A008130B9F488E28093630013C08B
:1009E00080916300883221F080916300853221F488
:1009F00081E28093630007C080916300873219F41D
:100A000081E28093630010926200109284008091D2
:100A100063000E94140580938500CF91DF911F91A0
:100A20000F91FF90EF900895DF93CF9300D000D007
:100A3000CDB7DEB78C8319821A821B8285E580933D
:100A400096008C81809397008C81882F90E085326E
:100A5000910569F08632910524F48132910539F0CF
:100A60000DC08732910531F08832910531F484E070
:100A70008B8304C081E08B8301C000008B81809355
:100A800098008C81882F90E085329105B1F18632F3
:100A9000910524F48132910551F06EC087329105A1
:100AA00009F448C08832910509F449C065C08091B5
:100AB0006C00882F90E082959295907F9827807F98
:100AC0009827982F80916B00892B80939900109222
:100AD0009A008091690080939B0080916800282F84
:100AE000217080916A00882F90E081709070880F4B
:100AF000991F822B80939C003FC080917800909139
:100B00007900892F9927809399008091780090919E
:100B1000790080939A008091760090917700892FD8
:100B2000992780939B008091760090917700809325
:100B30009C0022C080916000809399001DC080912C
:100B40007C0090917D00892F992780939900809156
:100B50007C0090917D0080939A0080917A00909122
:100B60007B00892F992780939B0080917A00909138
:100B70007B0080939C0000001A820DC08A81882F20
:100B800090E08A569F4FFC0180819981890F89836B
:100B90008A818F5F8A838A81282F30E0809190003C
:100BA000882F90E003962817390744F38A81882F0D
:100BB00090E08A569F4F2981FC0120838A818F5FB4
:100BC0008A838A81882F90E08A569F4F2AEAFC0107
:100BD00020838A810F900F900F900F90CF91DF911B
:100BE00008951F920F920FB60F9211242F933F93E7
:100BF0008F939F93EF93FF93DF93CF93CDB7DEB7A0
:100C00008BE290E0FC0180818823BCF4809183001A
:100C1000882F90E02CE230E0F90120818A559F4F27
:100C2000FC012083809183008F5F809383008091FB
:100C30008300803110F010928300CF91DF91FF91FB
:100C4000EF919F918F913F912F910F900FBE0F9039
:100C50001F901895DF93CF93CDB7DEB790918400A6
:100C6000809185009817E0F48BE290E0FC01808190
:100C7000882F90E0807290700097C9F08CE290E02D
:100C800020918400222F30E02A563F4FF901208125
:100C9000FC012083809184008F5F8093840007C0D3
:100CA00081E0809362001092850010928400CF91C1
:080CB000DF910895F894FFCFD5
:040CB8000101012114
:00000001FF
